{
  "_format": "hh-sol-artifact-1",
  "contractName": "ArbiTrader",
  "sourceName": "contracts/ArbiTrader.sol",
  "abi": [
    {
      "inputs": [
        {
          "internalType": "address",
          "name": "aavePoolProvider_",
          "type": "address"
        },
        {
          "internalType": "address",
          "name": "treassury_",
          "type": "address"
        }
      ],
      "stateMutability": "nonpayable",
      "type": "constructor"
    },
    {
      "anonymous": false,
      "inputs": [
        {
          "indexed": false,
          "internalType": "address",
          "name": "_dexAddress",
          "type": "address"
        }
      ],
      "name": "FailSwapEvent",
      "type": "event"
    },
    {
      "anonymous": false,
      "inputs": [
        {
          "indexed": false,
          "internalType": "string",
          "name": "_strategyId",
          "type": "string"
        }
      ],
      "name": "StrategyEvent",
      "type": "event"
    },
    {
      "stateMutability": "payable",
      "type": "fallback"
    },
    {
      "inputs": [],
      "name": "_aavePool",
      "outputs": [
        {
          "internalType": "contract IPool",
          "name": "",
          "type": "address"
        }
      ],
      "stateMutability": "view",
      "type": "function"
    },
    {
      "inputs": [],
      "name": "_aavePoolProvider",
      "outputs": [
        {
          "internalType": "contract IPoolAddressesProvider",
          "name": "",
          "type": "address"
        }
      ],
      "stateMutability": "view",
      "type": "function"
    },
    {
      "inputs": [],
      "name": "_owner",
      "outputs": [
        {
          "internalType": "address",
          "name": "",
          "type": "address"
        }
      ],
      "stateMutability": "view",
      "type": "function"
    },
    {
      "inputs": [],
      "name": "_treassury",
      "outputs": [
        {
          "internalType": "address",
          "name": "",
          "type": "address"
        }
      ],
      "stateMutability": "view",
      "type": "function"
    },
    {
      "inputs": [],
      "name": "deposit",
      "outputs": [
        {
          "internalType": "uint256",
          "name": "",
          "type": "uint256"
        }
      ],
      "stateMutability": "payable",
      "type": "function"
    },
    {
      "inputs": [
        {
          "internalType": "address",
          "name": "_asset",
          "type": "address"
        },
        {
          "internalType": "uint256",
          "name": "_loanAmount",
          "type": "uint256"
        },
        {
          "internalType": "uint256",
          "name": "_premium",
          "type": "uint256"
        },
        {
          "internalType": "address",
          "name": "_initiator",
          "type": "address"
        },
        {
          "internalType": "bytes",
          "name": "_data",
          "type": "bytes"
        }
      ],
      "name": "executeOperation",
      "outputs": [
        {
          "internalType": "bool",
          "name": "",
          "type": "bool"
        }
      ],
      "stateMutability": "nonpayable",
      "type": "function"
    },
    {
      "inputs": [
        {
          "components": [
            {
              "internalType": "string",
              "name": "_strategyId",
              "type": "string"
            },
            {
              "internalType": "uint8",
              "name": "_strategyLength",
              "type": "uint8"
            },
            {
              "internalType": "string",
              "name": "_lenderSymbol",
              "type": "string"
            },
            {
              "internalType": "address",
              "name": "_loanAsset",
              "type": "address"
            },
            {
              "internalType": "uint256",
              "name": "_loanAmount",
              "type": "uint256"
            },
            {
              "internalType": "bytes[]",
              "name": "_ops",
              "type": "bytes[]"
            }
          ],
          "internalType": "struct AbstractTrader.Strategy",
          "name": "_strategy",
          "type": "tuple"
        }
      ],
      "name": "performStrategy",
      "outputs": [],
      "stateMutability": "nonpayable",
      "type": "function"
    },
    {
      "stateMutability": "payable",
      "type": "receive"
    }
  ],
  "bytecode": "0x60806040523480156200001157600080fd5b50604051620014af380380620014af83398101604081905262000034916200014e565b60016000819055600380546001600160a01b03199081163317909155600480546001600160a01b038581169184169190911782558354908616921682179092556040805163026b1d5f60e01b81529051919263026b1d5f928282019260209290829003018186803b158015620000a957600080fd5b505afa158015620000be573d6000803e3d6000fd5b505050506040513d601f19601f82011682018060405250810190620000e491906200012a565b600280546001600160a01b0319166001600160a01b039290921691909117905550620001859050565b80516001600160a01b03811681146200012557600080fd5b919050565b6000602082840312156200013c578081fd5b62000147826200010d565b9392505050565b6000806040838503121562000161578081fd5b6200016c836200010d565b91506200017c602084016200010d565b90509250929050565b61131a80620001956000396000f3fe60806040526004361061006e5760003560e01c8063ab6431751161004b578063ab64317514610104578063b2bdfa7b14610124578063d0e30db014610144578063dd6c68a11461015a57005b80631b11d0ff146100775780631d30ced9146100ac57806371973c6a146100e457005b3661007557005b005b34801561008357600080fd5b50610097610092366004610c58565b61017a565b60405190151581526020015b60405180910390f35b3480156100b857600080fd5b506004546100cc906001600160a01b031681565b6040516001600160a01b0390911681526020016100a3565b3480156100f057600080fd5b506001546100cc906001600160a01b031681565b34801561011057600080fd5b506002546100cc906001600160a01b031681565b34801561013057600080fd5b506003546100cc906001600160a01b031681565b61014c610482565b6040519081526020016100a3565b34801561016657600080fd5b50610075610175366004610e9e565b610521565b6040516370a0823160e01b815230600482015260009086906001600160a01b038916906370a082319060240160206040518083038186803b1580156101be57600080fd5b505afa1580156101d2573d6000803e3d6000fd5b505050506040513d601f19601f820116820180604052508101906101f69190610fa0565b10156102425760405162461bcd60e51b815260206004820152601660248201527510550e88131bd85b88151c985b9cd9995c8811985a5b60521b60448201526064015b60405180910390fd5b600061025083850185610e9e565b90506000600260009054906101000a90046001600160a01b03166001600160a01b0316636a99c0366040518163ffffffff1660e01b815260040160206040518083038186803b1580156102a257600080fd5b505afa1580156102b6573d6000803e3d6000fd5b505050506040513d601f19601f820116820180604052508101906102da9190610f79565b6102ed906001600160801b031689611221565b905060005b826020015160ff168160ff1610156103b357600061033d8460a001518360ff168151811061033057634e487b7160e01b600052603260045260246000fd5b6020026020010151610604565b9050600061034a8261068f565b9050806103568361068f565b101561039e576020808301516040516001600160a01b0390911681527f710ba6b8861f3d576cbf825374eb86fe1ee210ff7a129d3e75556fdac5fb8482910160405180910390a15b505080806103ab90611280565b9150506102f2565b5060025460405163095ea7b360e01b81526001600160a01b03918216600482015260248101839052908a169063095ea7b390604401602060405180830381600087803b15801561040257600080fd5b505af1158015610416573d6000803e3d6000fd5b505050506040513d601f19601f8201168201806040525081019061043a9190610d90565b5081516040517ff005264b99e0336cdb3828764139dec331258872429c73d6e49841cf5c542f7e9161046b9161102d565b60405180910390a150600198975050505050505050565b6003546000906001600160a01b031633146104cc5760405162461bcd60e51b815260206004820152600a60248201526927b7363c9027bbb732b960b11b6044820152606401610239565b6000341161051c5760405162461bcd60e51b815260206004820152601b60248201527f47617320636f73747320617265206869676820636f6d65206f6e2100000000006044820152606401610239565b504790565b6003546001600160a01b031633146105685760405162461bcd60e51b815260206004820152600a60248201526927b7363c9027bbb732b960b11b6044820152606401610239565b60008160405160200161057b9190611040565b60408051601f1981840301815290829052600254606085015160808601516310ac2ddf60e21b85529294506001600160a01b03909116926342b0b77c926105ce9230929091908790600090600401610fe4565b600060405180830381600087803b1580156105e857600080fd5b505af11580156105fc573d6000803e3d6000fd5b505050505050565b61064d6040518060e001604052806060815260200160006001600160a01b0316815260200160008152602001600081526020016000815260200160608152602001606081525090565b818060200190518101906106619190610db0565b60c088015260a08701526080860152606085015260408401526001600160a01b031660208301528152919050565b60008160a001516000815181106106b657634e487b7160e01b600052603260045260246000fd5b60200260200101516001600160a01b031663095ea7b3836020015184604001516040518363ffffffff1660e01b81526004016107079291906001600160a01b03929092168252602082015260400190565b602060405180830381600087803b15801561072157600080fd5b505af1158015610735573d6000803e3d6000fd5b505050506040513d601f19601f820116820180604052508101906107599190610d90565b50604080518082019091526005815264554e49563360d81b602091820152825180519101207fdb0d6129523046881306c88d1d1077274db3a7a3227f51a33709d203f302049c14156109905781602001516001600160a01b031663414bf3896040518061010001604052808560a001516000815181106107e957634e487b7160e01b600052603260045260246000fd5b60200260200101516001600160a01b031681526020018560a0015160018760a00151516108169190611239565b8151811061083457634e487b7160e01b600052603260045260246000fd5b60200260200101516001600160a01b031681526020018560c0015160008151811061086f57634e487b7160e01b600052603260045260246000fd5b602002602001015162ffffff168152602001306001600160a01b03168152602001428152602001856040015181526020018560600151815260200160006001600160a01b03168152506040518263ffffffff1660e01b8152600401610938919081516001600160a01b03908116825260208084015182169083015260408084015162ffffff16908301526060808401518216908301526080808401519083015260a0838101519083015260c0808401519083015260e09283015116918101919091526101000190565b602060405180830381600087803b15801561095257600080fd5b505af1158015610966573d6000803e3d6000fd5b505050506040513d601f19601f8201168201806040525081019061098a9190610fa0565b92915050565b81602001516001600160a01b03166338ed1739836040015184606001518560a0015130426040518663ffffffff1660e01b81526004016109d495949392919061110b565b600060405180830381600087803b1580156109ee57600080fd5b505af1158015610a02573d6000803e3d6000fd5b505050506040513d6000823e601f3d908101601f19168201604052610a2a9190810190610cfd565b600181518110610a4a57634e487b7160e01b600052603260045260246000fd5b602002602001015190505b919050565b6000610a6d610a68846111f9565b6111a4565b9050828152838383011115610a8157600080fd5b828260208301376000602084830101529392505050565b8035610a55816112cc565b8051610a55816112cc565b600082601f830112610abe578081fd5b81516020610ace610a68836111d5565b80838252828201915082860187848660051b8901011115610aed578586fd5b855b85811015610b14578151610b02816112cc565b84529284019290840190600101610aef565b5090979650505050505050565b600082601f830112610b31578081fd5b81356020610b41610a68836111d5565b80838252828201915082860187848660051b8901011115610b60578586fd5b855b85811015610b1457813567ffffffffffffffff811115610b80578788fd5b8801603f81018a13610b90578788fd5b610ba18a8783013560408401610a5a565b8552509284019290840190600101610b62565b600082601f830112610bc4578081fd5b81516020610bd4610a68836111d5565b80838252828201915082860187848660051b8901011115610bf3578586fd5b855b85811015610b1457815162ffffff81168114610c0f578788fd5b84529284019290840190600101610bf5565b600082601f830112610c31578081fd5b610c4083833560208501610a5a565b9392505050565b803560ff81168114610a5557600080fd5b60008060008060008060a08789031215610c70578182fd5b8635610c7b816112cc565b955060208701359450604087013593506060870135610c99816112cc565b9250608087013567ffffffffffffffff80821115610cb5578384fd5b818901915089601f830112610cc8578384fd5b813581811115610cd6578485fd5b8a6020828501011115610ce7578485fd5b6020830194508093505050509295509295509295565b60006020808385031215610d0f578182fd5b825167ffffffffffffffff811115610d25578283fd5b8301601f81018513610d35578283fd5b8051610d43610a68826111d5565b80828252848201915084840188868560051b8701011115610d62578687fd5b8694505b83851015610d84578051835260019490940193918501918501610d66565b50979650505050505050565b600060208284031215610da1578081fd5b81518015158114610c40578182fd5b600080600080600080600060e0888a031215610dca578485fd5b875167ffffffffffffffff80821115610de1578687fd5b818a0191508a601f830112610df4578687fd5b8151610e02610a68826111f9565b8181528c6020838601011115610e16578889fd5b610e27826020830160208701611250565b9950610e37905060208b01610aa3565b975060408a0151965060608a0151955060808a0151945060a08a0151915080821115610e61578283fd5b610e6d8b838c01610aae565b935060c08a0151915080821115610e82578283fd5b50610e8f8a828b01610bb4565b91505092959891949750929550565b600060208284031215610eaf578081fd5b813567ffffffffffffffff80821115610ec6578283fd5b9083019060c08286031215610ed9578283fd5b610ee161117b565b823582811115610eef578485fd5b610efb87828601610c21565b825250610f0a60208401610c47565b6020820152604083013582811115610f20578485fd5b610f2c87828601610c21565b604083015250610f3e60608401610a98565b60608201526080830135608082015260a083013582811115610f5e578485fd5b610f6a87828601610b21565b60a08301525095945050505050565b600060208284031215610f8a578081fd5b81516001600160801b0381168114610c40578182fd5b600060208284031215610fb1578081fd5b5051919050565b60008151808452610fd0816020860160208601611250565b601f01601f19169290920160200192915050565b6001600160a01b038681168252851660208201526040810184905260a06060820181905260009061101790830185610fb8565b905061ffff831660808301529695505050505050565b602081526000610c406020830184610fb8565b60006020808352835160c08285015261105c60e0850182610fb8565b905060ff828601511660408501526040850151601f19808684030160608701526110868383610fb8565b60608801516001600160a01b031660808881019190915288015160a088810191909152880151878203830160c089015280518083529194508501925084840190600581901b85018601875b828110156110fd57848783030184526110eb828751610fb8565b958801959388019391506001016110d1565b509998505050505050505050565b600060a082018783526020878185015260a0604085015281875180845260c0860191508289019350845b8181101561115a5784516001600160a01b031683529383019391830191600101611135565b50506001600160a01b03969096166060850152505050608001529392505050565b60405160c0810167ffffffffffffffff8111828210171561119e5761119e6112b6565b60405290565b604051601f8201601f1916810167ffffffffffffffff811182821017156111cd576111cd6112b6565b604052919050565b600067ffffffffffffffff8211156111ef576111ef6112b6565b5060051b60200190565b600067ffffffffffffffff821115611213576112136112b6565b50601f01601f191660200190565b60008219821115611234576112346112a0565b500190565b60008282101561124b5761124b6112a0565b500390565b60005b8381101561126b578181015183820152602001611253565b8381111561127a576000848401525b50505050565b600060ff821660ff811415611297576112976112a0565b60010192915050565b634e487b7160e01b600052601160045260246000fd5b634e487b7160e01b600052604160045260246000fd5b6001600160a01b03811681146112e157600080fd5b5056fea2646970667358221220efe7bbeb3e435bc52953ae141465ed2d29f2a8cbf0399a6f374f75618662c19064736f6c63430008040033",
  "linkReferences": {},
  "deployedLinkReferences": {}
}