{
  "abi": [
    {
      "inputs": [
        {
          "internalType": "address",
          "name": "aavePoolProvider_",
          "type": "address"
        },
        {
          "internalType": "address",
          "name": "treassury_",
          "type": "address"
        }
      ],
      "stateMutability": "nonpayable",
      "type": "constructor"
    },
    {
      "anonymous": false,
      "inputs": [
        {
          "indexed": false,
          "internalType": "address",
          "name": "_dexAddress",
          "type": "address"
        }
      ],
      "name": "FailSwapEvent",
      "type": "event"
    },
    {
      "anonymous": false,
      "inputs": [
        {
          "components": [
            {
              "internalType": "string",
              "name": "_dexSymbol",
              "type": "string"
            },
            {
              "internalType": "address",
              "name": "_dexAddress",
              "type": "address"
            },
            {
              "internalType": "uint256",
              "name": "_amountIn",
              "type": "uint256"
            },
            {
              "internalType": "uint256",
              "name": "_amountOut",
              "type": "uint256"
            },
            {
              "internalType": "uint256",
              "name": "_spotPrice",
              "type": "uint256"
            },
            {
              "internalType": "address[]",
              "name": "_paths",
              "type": "address[]"
            },
            {
              "internalType": "uint24[]",
              "name": "_poolFees",
              "type": "uint24[]"
            }
          ],
          "indexed": false,
          "internalType": "struct AbstractTrader.Operation",
          "name": "currentOperation",
          "type": "tuple"
        }
      ],
      "name": "LogOperationEvent",
      "type": "event"
    },
    {
      "anonymous": false,
      "inputs": [
        {
          "indexed": false,
          "internalType": "string",
          "name": "_strategyId",
          "type": "string"
        }
      ],
      "name": "StrategyEvent",
      "type": "event"
    },
    {
      "stateMutability": "payable",
      "type": "fallback"
    },
    {
      "inputs": [],
      "name": "_aavePool",
      "outputs": [
        {
          "internalType": "contract IPool",
          "name": "",
          "type": "address"
        }
      ],
      "stateMutability": "view",
      "type": "function"
    },
    {
      "inputs": [],
      "name": "_aavePoolProvider",
      "outputs": [
        {
          "internalType": "contract IPoolAddressesProvider",
          "name": "",
          "type": "address"
        }
      ],
      "stateMutability": "view",
      "type": "function"
    },
    {
      "inputs": [],
      "name": "_owner",
      "outputs": [
        {
          "internalType": "address",
          "name": "",
          "type": "address"
        }
      ],
      "stateMutability": "view",
      "type": "function"
    },
    {
      "inputs": [],
      "name": "_treassury",
      "outputs": [
        {
          "internalType": "address",
          "name": "",
          "type": "address"
        }
      ],
      "stateMutability": "view",
      "type": "function"
    },
    {
      "inputs": [],
      "name": "deposit",
      "outputs": [
        {
          "internalType": "uint256",
          "name": "",
          "type": "uint256"
        }
      ],
      "stateMutability": "payable",
      "type": "function"
    },
    {
      "inputs": [
        {
          "internalType": "address",
          "name": "_asset",
          "type": "address"
        },
        {
          "internalType": "uint256",
          "name": "_loanAmount",
          "type": "uint256"
        },
        {
          "internalType": "uint256",
          "name": "_premium",
          "type": "uint256"
        },
        {
          "internalType": "address",
          "name": "_initiator",
          "type": "address"
        },
        {
          "internalType": "bytes",
          "name": "_data",
          "type": "bytes"
        }
      ],
      "name": "executeOperation",
      "outputs": [
        {
          "internalType": "bool",
          "name": "",
          "type": "bool"
        }
      ],
      "stateMutability": "nonpayable",
      "type": "function"
    },
    {
      "inputs": [
        {
          "components": [
            {
              "internalType": "string",
              "name": "_strategyId",
              "type": "string"
            },
            {
              "internalType": "uint8",
              "name": "_strategyLength",
              "type": "uint8"
            },
            {
              "internalType": "string",
              "name": "_lenderSymbol",
              "type": "string"
            },
            {
              "internalType": "address",
              "name": "_loanAsset",
              "type": "address"
            },
            {
              "internalType": "uint256",
              "name": "_loanAmount",
              "type": "uint256"
            },
            {
              "internalType": "bytes[]",
              "name": "_ops",
              "type": "bytes[]"
            }
          ],
          "internalType": "struct ArbiTrader.Strategy",
          "name": "_strategy",
          "type": "tuple"
        }
      ],
      "name": "performStrategy",
      "outputs": [],
      "stateMutability": "nonpayable",
      "type": "function"
    },
    {
      "stateMutability": "payable",
      "type": "receive"
    }
  ],
  "bytecode": {
    "object": "0x60806040523480156200001157600080fd5b5060405162001d6738038062001d6783398101604081905262000034916200014e565b60016000819055600380546001600160a01b03199081163317909155600480546001600160a01b038581169184169190911782558354908616921682179092556040805163026b1d5f60e01b81529051919263026b1d5f928282019260209290829003018186803b158015620000a957600080fd5b505afa158015620000be573d6000803e3d6000fd5b505050506040513d601f19601f82011682018060405250810190620000e491906200012a565b600280546001600160a01b0319166001600160a01b039290921691909117905550620001859050565b80516001600160a01b03811681146200012557600080fd5b919050565b6000602082840312156200013c578081fd5b62000147826200010d565b9392505050565b6000806040838503121562000161578081fd5b6200016c836200010d565b91506200017c602084016200010d565b90509250929050565b611bd280620001956000396000f3fe60806040526004361061006e5760003560e01c8063ab6431751161004b578063ab64317514610104578063b2bdfa7b14610124578063d0e30db014610144578063dd6c68a11461015a57005b80631b11d0ff146100775780631d30ced9146100ac57806371973c6a146100e457005b3661007557005b005b34801561008357600080fd5b506100976100923660046113ad565b61017a565b60405190151581526020015b60405180910390f35b3480156100b857600080fd5b506004546100cc906001600160a01b031681565b6040516001600160a01b0390911681526020016100a3565b3480156100f057600080fd5b506001546100cc906001600160a01b031681565b34801561011057600080fd5b506002546100cc906001600160a01b031681565b34801561013057600080fd5b506003546100cc906001600160a01b031681565b61014c61077f565b6040519081526020016100a3565b34801561016657600080fd5b506100756101753660046115f3565b6107d5565b600080600260009054906101000a90046001600160a01b03166001600160a01b0316636a99c0366040518163ffffffff1660e01b815260040160206040518083038186803b1580156101cb57600080fd5b505afa1580156101df573d6000803e3d6000fd5b505050506040513d601f19601f8201168201806040525081019061020391906116ce565b610216906001600160801b031688611af7565b6040516370a0823160e01b81523060048201529091506000906001600160a01b038a16906370a082319060240160206040518083038186803b15801561025b57600080fd5b505afa15801561026f573d6000803e3d6000fd5b505050506040513d601f19601f8201168201806040525081019061029391906116f5565b90506102cb60405180604001604052806014815260200173024b734ba34b0b6103637b0b71d1d902aa9a221960651b815250826108eb565b878110156103195760405162461bcd60e51b815260206004820152601660248201527510550e88131bd85b88151c985b9cd9995c8811985a5b60521b60448201526064015b60405180910390fd5b6000610327858701876115f3565b90506000805b826020015160ff168160ff1610156105b35760006103788460a001518360ff168151811061036b57634e487b7160e01b600052603260045260246000fd5b6020026020010151610934565b90506103bc6040518060400160405280601781526020017f657865637574654f7065726174696f6e2e2e2e206f703a0000000000000000008152508360ff166108eb565b82156105045760008160a001516000815181106103e957634e487b7160e01b600052603260045260246000fd5b60209081029190910101516040516370a0823160e01b81523060048201526001600160a01b03909116906370a082319060240160206040518083038186803b15801561043457600080fd5b505afa158015610448573d6000803e3d6000fd5b505050506040513d601f19601f8201168201806040525081019061046c91906116f5565b90506104a160405180604001604052806011815260200170037b732a4b731b42130b630b731b29d101607d1b815250826108eb565b838110156104f15760405162461bcd60e51b815260206004820152601c60248201527f6e6f7420656e6f75676874206f6e6520696e63682062616c616e6365000000006044820152606401610310565b50604081018390526305f5e10060608201525b7ffddc975ed89aafdc4794d26ee4921f6f916be7620f2d1d9be44d690458dbb0b381604051610533919061188f565b60405180910390a1610544816109bf565b92506105a06040518060400160405280600b81526020016a6f7065726174696f6e202360a81b8152508360ff166040518060400160405280601081526020016f102fb9bbb0b82932b9bab63a1897171760811b81525086610e00565b50806105ab81611b3b565b91505061032d565b506040516370a0823160e01b81523060048201526000906001600160a01b038d16906370a082319060240160206040518083038186803b1580156105f657600080fd5b505afa15801561060a573d6000803e3d6000fd5b505050506040513d601f19601f8201168201806040525081019061062e91906116f5565b905061066f6040518060400160405280601981526020017f7573646342616c616e63652061667465722073776170733a2000000000000000815250826108eb565b6106ae6040518060400160405280601e81526020017f5f72657061794c6f616e416d6f756e742061667465722073776170733a200000815250866108eb565b60025460405163095ea7b360e01b81526001600160a01b03918216600482015260248101879052908d169063095ea7b390604401602060405180830381600087803b1580156106fc57600080fd5b505af1158015610710573d6000803e3d6000fd5b505050506040513d601f19601f8201168201806040525081019061073491906114e5565b5082516040517ff005264b99e0336cdb3828764139dec331258872429c73d6e49841cf5c542f7e91610765916117c5565b60405180910390a15060019b9a5050505050505050505050565b60008034116107d05760405162461bcd60e51b815260206004820152601b60248201527f47617320636f73747320617265206869676820636f6d65206f6e2100000000006044820152606401610310565b504790565b6003546001600160a01b0316331461081c5760405162461bcd60e51b815260206004820152600a60248201526927b7363c9027bbb732b960b11b6044820152606401610310565b61084f604051806040016040528060128152602001713832b93337b936a9ba3930ba32b3bc97171760711b815250610e4f565b600081604051602001610862919061194a565b60408051601f1981840301815290829052600254606085015160808601516310ac2ddf60e21b85529294506001600160a01b03909116926342b0b77c926108b5923092909190879060009060040161177c565b600060405180830381600087803b1580156108cf57600080fd5b505af11580156108e3573d6000803e3d6000fd5b505050505050565b61093082826040516024016109019291906117d8565b60408051601f198184030181529190526020810180516001600160e01b03166309710a9d60e41b179052610e95565b5050565b61097d6040518060e001604052806060815260200160006001600160a01b0316815260200160008152602001600081526020016000815260200160608152602001606081525090565b818060200190518101906109919190611505565b60c088015260a08701526080860152606085015260408401526001600160a01b031660208301528152919050565b60008160a001516000815181106109e657634e487b7160e01b600052603260045260246000fd5b60200260200101516001600160a01b031663095ea7b3836020015184604001516040518363ffffffff1660e01b8152600401610a379291906001600160a01b03929092168252602082015260400190565b602060405180830381600087803b158015610a5157600080fd5b505af1158015610a65573d6000803e3d6000fd5b505050506040513d601f19601f82011682018060405250810190610a8991906114e5565b50604080518082019091526005815264554e49563360d81b602091820152825180519101207fdb0d6129523046881306c88d1d1077274db3a7a3227f51a33709d203f302049c1415610d365760018260c00151511115610bb35781602001516001600160a01b031663c04b8d596040518060a00160405280610b138660a001518760c00151610eb6565b8152602001306001600160a01b031681526020014281526020018560400151815260200185606001518152506040518263ffffffff1660e01b8152600401610b5b9190611837565b602060405180830381600087803b158015610b7557600080fd5b505af1158015610b89573d6000803e3d6000fd5b505050506040513d601f19601f82011682018060405250810190610bad91906116f5565b92915050565b81602001516001600160a01b031663414bf3896040518061010001604052808560a00151600081518110610bf757634e487b7160e01b600052603260045260246000fd5b60200260200101516001600160a01b031681526020018560a00151600181518110610c3257634e487b7160e01b600052603260045260246000fd5b60200260200101516001600160a01b031681526020018560c00151600081518110610c6d57634e487b7160e01b600052603260045260246000fd5b602002602001015162ffffff168152602001306001600160a01b03168152602001428152602001856040015181526020018560600151815260200160006001600160a01b03168152506040518263ffffffff1660e01b8152600401610b5b919081516001600160a01b03908116825260208084015182169083015260408084015162ffffff16908301526060808401518216908301526080808401519083015260a0838101519083015260c0808401519083015260e09283015116918101919091526101000190565b81602001516001600160a01b03166338ed1739836040015184606001518560a0015130426040518663ffffffff1660e01b8152600401610d7a959493929190611a15565b600060405180830381600087803b158015610d9457600080fd5b505af1158015610da8573d6000803e3d6000fd5b505050506040513d6000823e601f3d908101601f19168201604052610dd09190810190611452565b600181518110610df057634e487b7160e01b600052603260045260246000fd5b602002602001015190505b919050565b610e4984848484604051602401610e1a94939291906117fa565b60408051601f198184030181529190526020810180516001600160e01b031663a0c4b22560e01b179052610e95565b50505050565b610e9281604051602401610e6391906117c5565b60408051601f198184030181529190526020810180516001600160e01b031663104c13eb60e21b179052610e95565b50565b80516a636f6e736f6c652e6c6f67602083016000808483855afa5050505050565b60608151600214156110045782600081518110610ee357634e487b7160e01b600052603260045260246000fd5b602002602001015182600081518110610f0c57634e487b7160e01b600052603260045260246000fd5b602002602001015184600181518110610f3557634e487b7160e01b600052603260045260246000fd5b602002602001015184600181518110610f5e57634e487b7160e01b600052603260045260246000fd5b602002602001015186600281518110610f8757634e487b7160e01b600052603260045260246000fd5b6020026020010151604051602001610ff2959493929190606095861b6bffffffffffffffffffffffff19908116825260e895861b6001600160e81b0319908116601484015294871b811660178301529290941b909216602b840152921b909116602e82015260420190565b60405160208183030381529060405290505b815160031415610bad578260008151811061102f57634e487b7160e01b600052603260045260246000fd5b60200260200101518260008151811061105857634e487b7160e01b600052603260045260246000fd5b60200260200101518460018151811061108157634e487b7160e01b600052603260045260246000fd5b6020026020010151846001815181106110aa57634e487b7160e01b600052603260045260246000fd5b6020026020010151866002815181106110d357634e487b7160e01b600052603260045260246000fd5b6020026020010151866002815181106110fc57634e487b7160e01b600052603260045260246000fd5b60200260200101518860038151811061112557634e487b7160e01b600052603260045260246000fd5b6020908102919091018101516040516bffffffffffffffffffffffff196060998a1b8116938201939093526001600160e81b031960e898891b8116603483015296891b8316603782015294871b8616604b86015292871b8116604e850152941b9092166062820152921b166065820152607901604051602081830303815290604052905092915050565b60006111c26111bd84611acf565b611a7a565b90508281528383830111156111d657600080fd5b828260208301376000602084830101529392505050565b8035610dfb81611b87565b8051610dfb81611b87565b600082601f830112611213578081fd5b815160206112236111bd83611aab565b80838252828201915082860187848660051b8901011115611242578586fd5b855b8581101561126957815161125781611b87565b84529284019290840190600101611244565b5090979650505050505050565b600082601f830112611286578081fd5b813560206112966111bd83611aab565b80838252828201915082860187848660051b89010111156112b5578586fd5b855b8581101561126957813567ffffffffffffffff8111156112d5578788fd5b8801603f81018a136112e5578788fd5b6112f68a87830135604084016111af565b85525092840192908401906001016112b7565b600082601f830112611319578081fd5b815160206113296111bd83611aab565b80838252828201915082860187848660051b8901011115611348578586fd5b855b8581101561126957815162ffffff81168114611364578788fd5b8452928401929084019060010161134a565b600082601f830112611386578081fd5b611395838335602085016111af565b9392505050565b803560ff81168114610dfb57600080fd5b60008060008060008060a087890312156113c5578182fd5b86356113d081611b87565b9550602087013594506040870135935060608701356113ee81611b87565b9250608087013567ffffffffffffffff8082111561140a578384fd5b818901915089601f83011261141d578384fd5b81358181111561142b578485fd5b8a602082850101111561143c578485fd5b6020830194508093505050509295509295509295565b60006020808385031215611464578182fd5b825167ffffffffffffffff81111561147a578283fd5b8301601f8101851361148a578283fd5b80516114986111bd82611aab565b80828252848201915084840188868560051b87010111156114b7578687fd5b8694505b838510156114d95780518352600194909401939185019185016114bb565b50979650505050505050565b6000602082840312156114f6578081fd5b81518015158114611395578182fd5b600080600080600080600060e0888a03121561151f578485fd5b875167ffffffffffffffff80821115611536578687fd5b818a0191508a601f830112611549578687fd5b81516115576111bd82611acf565b8181528c602083860101111561156b578889fd5b61157c826020830160208701611b0f565b995061158c905060208b016111f8565b975060408a0151965060608a0151955060808a0151945060a08a01519150808211156115b6578283fd5b6115c28b838c01611203565b935060c08a01519150808211156115d7578283fd5b506115e48a828b01611309565b91505092959891949750929550565b600060208284031215611604578081fd5b813567ffffffffffffffff8082111561161b578283fd5b9083019060c0828603121561162e578283fd5b611636611a51565b823582811115611644578485fd5b61165087828601611376565b82525061165f6020840161139c565b6020820152604083013582811115611675578485fd5b61168187828601611376565b604083015250611693606084016111ed565b60608201526080830135608082015260a0830135828111156116b3578485fd5b6116bf87828601611276565b60a08301525095945050505050565b6000602082840312156116df578081fd5b81516001600160801b0381168114611395578182fd5b600060208284031215611706578081fd5b5051919050565b6000815180845260208085019450808401835b838110156117455781516001600160a01b031687529582019590820190600101611720565b509495945050505050565b60008151808452611768816020860160208601611b0f565b601f01601f19169290920160200192915050565b6001600160a01b038681168252851660208201526040810184905260a0606082018190526000906117af90830185611750565b905061ffff831660808301529695505050505050565b6020815260006113956020830184611750565b6040815260006117eb6040830185611750565b90508260208301529392505050565b60808152600061180d6080830187611750565b85602084015282810360408401526118258186611750565b91505082606083015295945050505050565b602081526000825160a0602084015261185360c0840182611750565b905060018060a01b0360208501511660408401526040840151606084015260608401516080840152608084015160a08401528091505092915050565b60006020808352835160e0828501526118ac610100850182611750565b905060018060a01b03828601511660408501526040850151606085015260608501516080850152608085015160a085015260a0850151601f19808684030160c08701526118f9838361170d565b60c088015187820390920160e0880152815180825291850193508592508401905b8083101561193f57835162ffffff16825292840192600192909201919084019061191a565b509695505050505050565b60006020808352835160c08285015261196660e0850182611750565b905060ff828601511660408501526040850151601f19808684030160608701526119908383611750565b60608801516001600160a01b031660808881019190915288015160a088810191909152880151878203830160c089015280518083529194508501925084840190600581901b85018601875b82811015611a0757848783030184526119f5828751611750565b958801959388019391506001016119db565b509998505050505050505050565b85815284602082015260a060408201526000611a3460a083018661170d565b6001600160a01b0394909416606083015250608001529392505050565b60405160c0810167ffffffffffffffff81118282101715611a7457611a74611b71565b60405290565b604051601f8201601f1916810167ffffffffffffffff81118282101715611aa357611aa3611b71565b604052919050565b600067ffffffffffffffff821115611ac557611ac5611b71565b5060051b60200190565b600067ffffffffffffffff821115611ae957611ae9611b71565b50601f01601f191660200190565b60008219821115611b0a57611b0a611b5b565b500190565b60005b83811015611b2a578181015183820152602001611b12565b83811115610e495750506000910152565b600060ff821660ff811415611b5257611b52611b5b565b60010192915050565b634e487b7160e01b600052601160045260246000fd5b634e487b7160e01b600052604160045260246000fd5b6001600160a01b0381168114610e9257600080fdfea26469706673582212201fee9df1b0ada0d4f9fbdfcdfc75aa3965784dbaf7500840b1fc7893fa6690ec64736f6c63430008040033",
    "linkReferences": {}
  }
}